{
  "_format": "hh-sol-artifact-1",
  "contractName": "Auction",
  "sourceName": "contracts/Auction.sol",
  "abi": [
    {
      "inputs": [
        {
          "internalType": "address",
          "name": "_nftContract",
          "type": "address"
        }
      ],
      "stateMutability": "nonpayable",
      "type": "constructor"
    },
    {
      "anonymous": false,
      "inputs": [
        {
          "indexed": false,
          "internalType": "address",
          "name": "winner",
          "type": "address"
        },
        {
          "indexed": false,
          "internalType": "uint256",
          "name": "amount",
          "type": "uint256"
        }
      ],
      "name": "AuctionEnded",
      "type": "event"
    },
    {
      "anonymous": false,
      "inputs": [
        {
          "indexed": false,
          "internalType": "uint256",
          "name": "endTime",
          "type": "uint256"
        },
        {
          "indexed": false,
          "internalType": "string",
          "name": "tokenURI",
          "type": "string"
        }
      ],
      "name": "AuctionStarted",
      "type": "event"
    },
    {
      "anonymous": false,
      "inputs": [
        {
          "indexed": true,
          "internalType": "address",
          "name": "bidder",
          "type": "address"
        },
        {
          "indexed": false,
          "internalType": "uint256",
          "name": "amount",
          "type": "uint256"
        }
      ],
      "name": "NewBid",
      "type": "event"
    },
    {
      "anonymous": false,
      "inputs": [
        {
          "indexed": true,
          "internalType": "address",
          "name": "bidder",
          "type": "address"
        },
        {
          "indexed": false,
          "internalType": "uint256",
          "name": "amount",
          "type": "uint256"
        }
      ],
      "name": "Withdrawal",
      "type": "event"
    },
    {
      "inputs": [],
      "name": "auctionEndTime",
      "outputs": [
        {
          "internalType": "uint256",
          "name": "",
          "type": "uint256"
        }
      ],
      "stateMutability": "view",
      "type": "function"
    },
    {
      "inputs": [],
      "name": "bid",
      "outputs": [],
      "stateMutability": "payable",
      "type": "function"
    },
    {
      "inputs": [],
      "name": "currentTokenURI",
      "outputs": [
        {
          "internalType": "string",
          "name": "",
          "type": "string"
        }
      ],
      "stateMutability": "view",
      "type": "function"
    },
    {
      "inputs": [],
      "name": "ended",
      "outputs": [
        {
          "internalType": "bool",
          "name": "",
          "type": "bool"
        }
      ],
      "stateMutability": "view",
      "type": "function"
    },
    {
      "inputs": [],
      "name": "finalizeAuction",
      "outputs": [],
      "stateMutability": "nonpayable",
      "type": "function"
    },
    {
      "inputs": [],
      "name": "highestBid",
      "outputs": [
        {
          "internalType": "uint256",
          "name": "",
          "type": "uint256"
        }
      ],
      "stateMutability": "view",
      "type": "function"
    },
    {
      "inputs": [],
      "name": "highestBidder",
      "outputs": [
        {
          "internalType": "address payable",
          "name": "",
          "type": "address"
        }
      ],
      "stateMutability": "view",
      "type": "function"
    },
    {
      "inputs": [],
      "name": "nftContract",
      "outputs": [
        {
          "internalType": "contract IFunBombNFT",
          "name": "",
          "type": "address"
        }
      ],
      "stateMutability": "view",
      "type": "function"
    },
    {
      "inputs": [],
      "name": "owner",
      "outputs": [
        {
          "internalType": "address",
          "name": "",
          "type": "address"
        }
      ],
      "stateMutability": "view",
      "type": "function"
    },
    {
      "inputs": [
        {
          "internalType": "address",
          "name": "",
          "type": "address"
        }
      ],
      "name": "pendingReturns",
      "outputs": [
        {
          "internalType": "uint256",
          "name": "",
          "type": "uint256"
        }
      ],
      "stateMutability": "view",
      "type": "function"
    },
    {
      "inputs": [
        {
          "internalType": "uint256",
          "name": "_duration",
          "type": "uint256"
        },
        {
          "internalType": "string",
          "name": "_tokenURI",
          "type": "string"
        }
      ],
      "name": "startAuction",
      "outputs": [],
      "stateMutability": "nonpayable",
      "type": "function"
    },
    {
      "inputs": [],
      "name": "withdraw",
      "outputs": [
        {
          "internalType": "bool",
          "name": "",
          "type": "bool"
        }
      ],
      "stateMutability": "nonpayable",
      "type": "function"
    }
  ],
  "bytecode": "0x608060405234801561001057600080fd5b50604051611a4e380380611a4e8339818101604052810190610032919061011d565b33600360016101000a81548173ffffffffffffffffffffffffffffffffffffffff021916908373ffffffffffffffffffffffffffffffffffffffff16021790555080600660006101000a81548173ffffffffffffffffffffffffffffffffffffffff021916908373ffffffffffffffffffffffffffffffffffffffff1602179055505061014a565b600080fd5b600073ffffffffffffffffffffffffffffffffffffffff82169050919050565b60006100ea826100bf565b9050919050565b6100fa816100df565b811461010557600080fd5b50565b600081519050610117816100f1565b92915050565b600060208284031215610133576101326100ba565b5b600061014184828501610108565b91505092915050565b6118f5806101596000396000f3fe6080604052600436106100a75760003560e01c80638da5cb5b116100645780638da5cb5b1461019d5780638e9673a5146101c857806391f90157146101f3578063d56d229d1461021e578063d57bde7914610249578063f77282ab14610274576100a7565b806312fa6feb146100ac5780631998aeef146100d757806326b387bb146100e15780633ccfd60b1461011e5780634b449cba146101495780637bb8e8bc14610174575b600080fd5b3480156100b857600080fd5b506100c161028b565b6040516100ce9190610c33565b60405180910390f35b6100df61029e565b005b3480156100ed57600080fd5b5061010860048036038101906101039190610cc0565b6104c0565b6040516101159190610d06565b60405180910390f35b34801561012a57600080fd5b506101336104d8565b6040516101409190610c33565b60405180910390f35b34801561015557600080fd5b5061015e6106bd565b60405161016b9190610d06565b60405180910390f35b34801561018057600080fd5b5061019b60048036038101906101969190610e93565b6106c3565b005b3480156101a957600080fd5b506101b261086a565b6040516101bf9190610efe565b60405180910390f35b3480156101d457600080fd5b506101dd610890565b6040516101ea9190610f98565b60405180910390f35b3480156101ff57600080fd5b5061020861091e565b6040516102159190610fdb565b60405180910390f35b34801561022a57600080fd5b50610233610944565b6040516102409190611055565b60405180910390f35b34801561025557600080fd5b5061025e61096a565b60405161026b9190610d06565b60405180910390f35b34801561028057600080fd5b50610289610970565b005b600360009054906101000a900460ff1681565b60005442106102e2576040517f08c379a00000000000000000000000000000000000000000000000000000000081526004016102d9906110bc565b60405180910390fd5b6002543411610326576040517f08c379a000000000000000000000000000000000000000000000000000000000815260040161031d90611128565b60405180910390fd5b60004260005411610338576000610347565b426000546103469190611177565b5b9050601e8110156103a257603c4261035f91906111ab565b6000819055507f2fe938444ef7920478e9ac2ad4276bda0f511a876de62877610ea42a1cafd37760005460056040516103999291906112d8565b60405180910390a15b6000600254146104275760025460046000600160009054906101000a900473ffffffffffffffffffffffffffffffffffffffff1673ffffffffffffffffffffffffffffffffffffffff1673ffffffffffffffffffffffffffffffffffffffff168152602001908152602001600020600082825461041f91906111ab565b925050819055505b3460028190555033600160006101000a81548173ffffffffffffffffffffffffffffffffffffffff021916908373ffffffffffffffffffffffffffffffffffffffff1602179055503373ffffffffffffffffffffffffffffffffffffffff167fdd0b6c6a77960e2066c96171b4d7ac9e8b4c184011f38544afa36a5bb63ec59f346040516104b59190610d06565b60405180910390a250565b60046020528060005260406000206000915090505481565b600080600460003373ffffffffffffffffffffffffffffffffffffffff1673ffffffffffffffffffffffffffffffffffffffff16815260200190815260200160002054905060008111610560576040517f08c379a000000000000000000000000000000000000000000000000000000000815260040161055790611354565b60405180910390fd5b6000600460003373ffffffffffffffffffffffffffffffffffffffff1673ffffffffffffffffffffffffffffffffffffffff1681526020019081526020016000208190555060003373ffffffffffffffffffffffffffffffffffffffff16826040516105cb906113a5565b60006040518083038185875af1925050503d8060008114610608576040519150601f19603f3d011682016040523d82523d6000602084013e61060d565b606091505b50509050806106655781600460003373ffffffffffffffffffffffffffffffffffffffff1673ffffffffffffffffffffffffffffffffffffffff168152602001908152602001600020819055506000925050506106ba565b3373ffffffffffffffffffffffffffffffffffffffff167f7fcf532c15f0a6db0bd6d0e038bea71d30d808c7d98cb3bf7268a95bf5081b65836040516106ab9190610d06565b60405180910390a26001925050505b90565b60005481565b600360019054906101000a900473ffffffffffffffffffffffffffffffffffffffff1673ffffffffffffffffffffffffffffffffffffffff163373ffffffffffffffffffffffffffffffffffffffff1614610753576040517f08c379a000000000000000000000000000000000000000000000000000000000815260040161074a9061142c565b60405180910390fd5b60008054148061076557506000544210155b6107a4576040517f08c379a000000000000000000000000000000000000000000000000000000000815260040161079b90611498565b60405180910390fd5b81426107b091906111ab565b60008190555060006002819055506000600160006101000a81548173ffffffffffffffffffffffffffffffffffffffff021916908373ffffffffffffffffffffffffffffffffffffffff1602179055506000600360006101000a81548160ff021916908315150217905550806005908161082a9190611645565b507f2fe938444ef7920478e9ac2ad4276bda0f511a876de62877610ea42a1cafd3776000548260405161085e929190611717565b60405180910390a15050565b600360019054906101000a900473ffffffffffffffffffffffffffffffffffffffff1681565b6005805461089d9061120e565b80601f01602080910402602001604051908101604052809291908181526020018280546108c99061120e565b80156109165780601f106108eb57610100808354040283529160200191610916565b820191906000526020600020905b8154815290600101906020018083116108f957829003601f168201915b505050505081565b600160009054906101000a900473ffffffffffffffffffffffffffffffffffffffff1681565b600660009054906101000a900473ffffffffffffffffffffffffffffffffffffffff1681565b60025481565b6000544210156109b5576040517f08c379a00000000000000000000000000000000000000000000000000000000081526004016109ac90611793565b60405180910390fd5b600360009054906101000a900460ff1615610a05576040517f08c379a00000000000000000000000000000000000000000000000000000000081526004016109fc90611825565b60405180910390fd5b600360019054906101000a900473ffffffffffffffffffffffffffffffffffffffff1673ffffffffffffffffffffffffffffffffffffffff163373ffffffffffffffffffffffffffffffffffffffff1614610a95576040517f08c379a0000000000000000000000000000000000000000000000000000000008152600401610a8c9061142c565b60405180910390fd5b6001600360006101000a81548160ff021916908315150217905550600073ffffffffffffffffffffffffffffffffffffffff16600160009054906101000a900473ffffffffffffffffffffffffffffffffffffffff1673ffffffffffffffffffffffffffffffffffffffff1614610bb957600660009054906101000a900473ffffffffffffffffffffffffffffffffffffffff1673ffffffffffffffffffffffffffffffffffffffff1663eacabe14600160009054906101000a900473ffffffffffffffffffffffffffffffffffffffff1660056040518363ffffffff1660e01b8152600401610b86929190611866565b600060405180830381600087803b158015610ba057600080fd5b505af1158015610bb4573d6000803e3d6000fd5b505050505b7fdaec4582d5d9595688c8c98545fdd1c696d41c6aeaeb636737e84ed2f5c00eda600160009054906101000a900473ffffffffffffffffffffffffffffffffffffffff16600254604051610c0e929190611896565b60405180910390a1565b60008115159050919050565b610c2d81610c18565b82525050565b6000602082019050610c486000830184610c24565b92915050565b6000604051905090565b600080fd5b600080fd5b600073ffffffffffffffffffffffffffffffffffffffff82169050919050565b6000610c8d82610c62565b9050919050565b610c9d81610c82565b8114610ca857600080fd5b50565b600081359050610cba81610c94565b92915050565b600060208284031215610cd657610cd5610c58565b5b6000610ce484828501610cab565b91505092915050565b6000819050919050565b610d0081610ced565b82525050565b6000602082019050610d1b6000830184610cf7565b92915050565b610d2a81610ced565b8114610d3557600080fd5b50565b600081359050610d4781610d21565b92915050565b600080fd5b600080fd5b6000601f19601f8301169050919050565b7f4e487b7100000000000000000000000000000000000000000000000000000000600052604160045260246000fd5b610da082610d57565b810181811067ffffffffffffffff82111715610dbf57610dbe610d68565b5b80604052505050565b6000610dd2610c4e565b9050610dde8282610d97565b919050565b600067ffffffffffffffff821115610dfe57610dfd610d68565b5b610e0782610d57565b9050602081019050919050565b82818337600083830152505050565b6000610e36610e3184610de3565b610dc8565b905082815260208101848484011115610e5257610e51610d52565b5b610e5d848285610e14565b509392505050565b600082601f830112610e7a57610e79610d4d565b5b8135610e8a848260208601610e23565b91505092915050565b60008060408385031215610eaa57610ea9610c58565b5b6000610eb885828601610d38565b925050602083013567ffffffffffffffff811115610ed957610ed8610c5d565b5b610ee585828601610e65565b9150509250929050565b610ef881610c82565b82525050565b6000602082019050610f136000830184610eef565b92915050565b600081519050919050565b600082825260208201905092915050565b60005b83811015610f53578082015181840152602081019050610f38565b60008484015250505050565b6000610f6a82610f19565b610f748185610f24565b9350610f84818560208601610f35565b610f8d81610d57565b840191505092915050565b60006020820190508181036000830152610fb28184610f5f565b905092915050565b6000610fc582610c62565b9050919050565b610fd581610fba565b82525050565b6000602082019050610ff06000830184610fcc565b92915050565b6000819050919050565b600061101b61101661101184610c62565b610ff6565b610c62565b9050919050565b600061102d82611000565b9050919050565b600061103f82611022565b9050919050565b61104f81611034565b82525050565b600060208201905061106a6000830184611046565b92915050565b7f41756374696f6e20616c726561647920656e6465640000000000000000000000600082015250565b60006110a6601583610f24565b91506110b182611070565b602082019050919050565b600060208201905081810360008301526110d581611099565b9050919050565b7f426964206e6f74206869676820656e6f75676800000000000000000000000000600082015250565b6000611112601383610f24565b915061111d826110dc565b602082019050919050565b6000602082019050818103600083015261114181611105565b9050919050565b7f4e487b7100000000000000000000000000000000000000000000000000000000600052601160045260246000fd5b600061118282610ced565b915061118d83610ced565b92508282039050818111156111a5576111a4611148565b5b92915050565b60006111b682610ced565b91506111c183610ced565b92508282019050808211156111d9576111d8611148565b5b92915050565b7f4e487b7100000000000000000000000000000000000000000000000000000000600052602260045260246000fd5b6000600282049050600182168061122657607f821691505b602082108103611239576112386111df565b5b50919050565b60008190508160005260206000209050919050565b600081546112618161120e565b61126b8186610f24565b94506001821660008114611286576001811461129c576112cf565b60ff1983168652811515602002860193506112cf565b6112a58561123f565b60005b838110156112c7578154818901526001820191506020810190506112a8565b808801955050505b50505092915050565b60006040820190506112ed6000830185610cf7565b81810360208301526112ff8184611254565b90509392505050565b7f4e6f2066756e647320746f207769746864726177000000000000000000000000600082015250565b600061133e601483610f24565b915061134982611308565b602082019050919050565b6000602082019050818103600083015261136d81611331565b9050919050565b600081905092915050565b50565b600061138f600083611374565b915061139a8261137f565b600082019050919050565b60006113b082611382565b9150819050919050565b7f4f6e6c79206f776e65722063616e2063616c6c20746869732066756e6374696f60008201527f6e00000000000000000000000000000000000000000000000000000000000000602082015250565b6000611416602183610f24565b9150611421826113ba565b604082019050919050565b6000602082019050818103600083015261144581611409565b9050919050565b7f41756374696f6e20616c72656164792061637469766500000000000000000000600082015250565b6000611482601683610f24565b915061148d8261144c565b602082019050919050565b600060208201905081810360008301526114b181611475565b9050919050565b60006020601f8301049050919050565b600082821b905092915050565b6000600883026115057fffffffffffffffffffffffffffffffffffffffffffffffffffffffffffffffff826114c8565b61150f86836114c8565b95508019841693508086168417925050509392505050565b600061154261153d61153884610ced565b610ff6565b610ced565b9050919050565b6000819050919050565b61155c83611527565b61157061156882611549565b8484546114d5565b825550505050565b600090565b611585611578565b611590818484611553565b505050565b5b818110156115b4576115a960008261157d565b600181019050611596565b5050565b601f8211156115f9576115ca8161123f565b6115d3846114b8565b810160208510156115e2578190505b6115f66115ee856114b8565b830182611595565b50505b505050565b600082821c905092915050565b600061161c600019846008026115fe565b1980831691505092915050565b6000611635838361160b565b9150826002028217905092915050565b61164e82610f19565b67ffffffffffffffff81111561166757611666610d68565b5b611671825461120e565b61167c8282856115b8565b600060209050601f8311600181146116af576000841561169d578287015190505b6116a78582611629565b86555061170f565b601f1984166116bd8661123f565b60005b828110156116e5578489015182556001820191506020850194506020810190506116c0565b8683101561170257848901516116fe601f89168261160b565b8355505b6001600288020188555050505b505050505050565b600060408201905061172c6000830185610cf7565b818103602083015261173e8184610f5f565b90509392505050565b7f41756374696f6e207374696c6c206f6e676f696e670000000000000000000000600082015250565b600061177d601583610f24565b915061178882611747565b602082019050919050565b600060208201905081810360008301526117ac81611770565b9050919050565b7f41756374696f6e2068617320616c7265616479206265656e2066696e616c697a60008201527f6564000000000000000000000000000000000000000000000000000000000000602082015250565b600061180f602283610f24565b915061181a826117b3565b604082019050919050565b6000602082019050818103600083015261183e81611802565b9050919050565b600061185082611022565b9050919050565b61186081611845565b82525050565b600060408201905061187b6000830185611857565b818103602083015261188d8184611254565b90509392505050565b60006040820190506118ab6000830185611857565b6118b86020830184610cf7565b939250505056fea26469706673582212206b9f77fa0b16396e1fdaf2e46d029da877ee8bbc14be8298e5979673ccc3572064736f6c634300081c0033",
  "linkReferences": {},
  "deployedLinkReferences": {}
}