{
  "_format": "hh-sol-artifact-1",
  "contractName": "FunBombNFT",
  "sourceName": "contracts/FunBombNFT.sol",
  "abi": [
    {
      "inputs": [],
      "stateMutability": "nonpayable",
      "type": "constructor"
    },
    {
      "inputs": [
        {
          "internalType": "address",
          "name": "sender",
          "type": "address"
        },
        {
          "internalType": "uint256",
          "name": "tokenId",
          "type": "uint256"
        },
        {
          "internalType": "address",
          "name": "owner",
          "type": "address"
        }
      ],
      "name": "ERC721IncorrectOwner",
      "type": "error"
    },
    {
      "inputs": [
        {
          "internalType": "address",
          "name": "operator",
          "type": "address"
        },
        {
          "internalType": "uint256",
          "name": "tokenId",
          "type": "uint256"
        }
      ],
      "name": "ERC721InsufficientApproval",
      "type": "error"
    },
    {
      "inputs": [
        {
          "internalType": "address",
          "name": "approver",
          "type": "address"
        }
      ],
      "name": "ERC721InvalidApprover",
      "type": "error"
    },
    {
      "inputs": [
        {
          "internalType": "address",
          "name": "operator",
          "type": "address"
        }
      ],
      "name": "ERC721InvalidOperator",
      "type": "error"
    },
    {
      "inputs": [
        {
          "internalType": "address",
          "name": "owner",
          "type": "address"
        }
      ],
      "name": "ERC721InvalidOwner",
      "type": "error"
    },
    {
      "inputs": [
        {
          "internalType": "address",
          "name": "receiver",
          "type": "address"
        }
      ],
      "name": "ERC721InvalidReceiver",
      "type": "error"
    },
    {
      "inputs": [
        {
          "internalType": "address",
          "name": "sender",
          "type": "address"
        }
      ],
      "name": "ERC721InvalidSender",
      "type": "error"
    },
    {
      "inputs": [
        {
          "internalType": "uint256",
          "name": "tokenId",
          "type": "uint256"
        }
      ],
      "name": "ERC721NonexistentToken",
      "type": "error"
    },
    {
      "anonymous": false,
      "inputs": [
        {
          "indexed": true,
          "internalType": "address",
          "name": "owner",
          "type": "address"
        },
        {
          "indexed": true,
          "internalType": "address",
          "name": "approved",
          "type": "address"
        },
        {
          "indexed": true,
          "internalType": "uint256",
          "name": "tokenId",
          "type": "uint256"
        }
      ],
      "name": "Approval",
      "type": "event"
    },
    {
      "anonymous": false,
      "inputs": [
        {
          "indexed": true,
          "internalType": "address",
          "name": "owner",
          "type": "address"
        },
        {
          "indexed": true,
          "internalType": "address",
          "name": "operator",
          "type": "address"
        },
        {
          "indexed": false,
          "internalType": "bool",
          "name": "approved",
          "type": "bool"
        }
      ],
      "name": "ApprovalForAll",
      "type": "event"
    },
    {
      "anonymous": false,
      "inputs": [
        {
          "indexed": false,
          "internalType": "uint256",
          "name": "_fromTokenId",
          "type": "uint256"
        },
        {
          "indexed": false,
          "internalType": "uint256",
          "name": "_toTokenId",
          "type": "uint256"
        }
      ],
      "name": "BatchMetadataUpdate",
      "type": "event"
    },
    {
      "anonymous": false,
      "inputs": [
        {
          "indexed": false,
          "internalType": "uint256",
          "name": "_tokenId",
          "type": "uint256"
        }
      ],
      "name": "MetadataUpdate",
      "type": "event"
    },
    {
      "anonymous": false,
      "inputs": [
        {
          "indexed": true,
          "internalType": "address",
          "name": "from",
          "type": "address"
        },
        {
          "indexed": true,
          "internalType": "address",
          "name": "to",
          "type": "address"
        },
        {
          "indexed": true,
          "internalType": "uint256",
          "name": "tokenId",
          "type": "uint256"
        }
      ],
      "name": "Transfer",
      "type": "event"
    },
    {
      "inputs": [
        {
          "internalType": "address",
          "name": "to",
          "type": "address"
        },
        {
          "internalType": "uint256",
          "name": "tokenId",
          "type": "uint256"
        }
      ],
      "name": "approve",
      "outputs": [],
      "stateMutability": "nonpayable",
      "type": "function"
    },
    {
      "inputs": [],
      "name": "auctionContract",
      "outputs": [
        {
          "internalType": "address",
          "name": "",
          "type": "address"
        }
      ],
      "stateMutability": "view",
      "type": "function"
    },
    {
      "inputs": [
        {
          "internalType": "address",
          "name": "owner",
          "type": "address"
        }
      ],
      "name": "balanceOf",
      "outputs": [
        {
          "internalType": "uint256",
          "name": "",
          "type": "uint256"
        }
      ],
      "stateMutability": "view",
      "type": "function"
    },
    {
      "inputs": [
        {
          "internalType": "uint256",
          "name": "tokenId",
          "type": "uint256"
        }
      ],
      "name": "getApproved",
      "outputs": [
        {
          "internalType": "address",
          "name": "",
          "type": "address"
        }
      ],
      "stateMutability": "view",
      "type": "function"
    },
    {
      "inputs": [
        {
          "internalType": "address",
          "name": "owner",
          "type": "address"
        },
        {
          "internalType": "address",
          "name": "operator",
          "type": "address"
        }
      ],
      "name": "isApprovedForAll",
      "outputs": [
        {
          "internalType": "bool",
          "name": "",
          "type": "bool"
        }
      ],
      "stateMutability": "view",
      "type": "function"
    },
    {
      "inputs": [
        {
          "internalType": "address",
          "name": "to",
          "type": "address"
        },
        {
          "internalType": "string",
          "name": "tokenURI",
          "type": "string"
        }
      ],
      "name": "mintNFT",
      "outputs": [],
      "stateMutability": "nonpayable",
      "type": "function"
    },
    {
      "inputs": [],
      "name": "name",
      "outputs": [
        {
          "internalType": "string",
          "name": "",
          "type": "string"
        }
      ],
      "stateMutability": "view",
      "type": "function"
    },
    {
      "inputs": [],
      "name": "owner",
      "outputs": [
        {
          "internalType": "address",
          "name": "",
          "type": "address"
        }
      ],
      "stateMutability": "view",
      "type": "function"
    },
    {
      "inputs": [
        {
          "internalType": "uint256",
          "name": "tokenId",
          "type": "uint256"
        }
      ],
      "name": "ownerOf",
      "outputs": [
        {
          "internalType": "address",
          "name": "",
          "type": "address"
        }
      ],
      "stateMutability": "view",
      "type": "function"
    },
    {
      "inputs": [
        {
          "internalType": "address",
          "name": "from",
          "type": "address"
        },
        {
          "internalType": "address",
          "name": "to",
          "type": "address"
        },
        {
          "internalType": "uint256",
          "name": "tokenId",
          "type": "uint256"
        }
      ],
      "name": "safeTransferFrom",
      "outputs": [],
      "stateMutability": "nonpayable",
      "type": "function"
    },
    {
      "inputs": [
        {
          "internalType": "address",
          "name": "from",
          "type": "address"
        },
        {
          "internalType": "address",
          "name": "to",
          "type": "address"
        },
        {
          "internalType": "uint256",
          "name": "tokenId",
          "type": "uint256"
        },
        {
          "internalType": "bytes",
          "name": "data",
          "type": "bytes"
        }
      ],
      "name": "safeTransferFrom",
      "outputs": [],
      "stateMutability": "nonpayable",
      "type": "function"
    },
    {
      "inputs": [
        {
          "internalType": "address",
          "name": "operator",
          "type": "address"
        },
        {
          "internalType": "bool",
          "name": "approved",
          "type": "bool"
        }
      ],
      "name": "setApprovalForAll",
      "outputs": [],
      "stateMutability": "nonpayable",
      "type": "function"
    },
    {
      "inputs": [
        {
          "internalType": "address",
          "name": "_auctionContract",
          "type": "address"
        }
      ],
      "name": "setAuctionContract",
      "outputs": [],
      "stateMutability": "nonpayable",
      "type": "function"
    },
    {
      "inputs": [
        {
          "internalType": "bytes4",
          "name": "interfaceId",
          "type": "bytes4"
        }
      ],
      "name": "supportsInterface",
      "outputs": [
        {
          "internalType": "bool",
          "name": "",
          "type": "bool"
        }
      ],
      "stateMutability": "view",
      "type": "function"
    },
    {
      "inputs": [],
      "name": "symbol",
      "outputs": [
        {
          "internalType": "string",
          "name": "",
          "type": "string"
        }
      ],
      "stateMutability": "view",
      "type": "function"
    },
    {
      "inputs": [
        {
          "internalType": "uint256",
          "name": "tokenId",
          "type": "uint256"
        }
      ],
      "name": "tokenURI",
      "outputs": [
        {
          "internalType": "string",
          "name": "",
          "type": "string"
        }
      ],
      "stateMutability": "view",
      "type": "function"
    },
    {
      "inputs": [],
      "name": "totalMinted",
      "outputs": [
        {
          "internalType": "uint256",
          "name": "",
          "type": "uint256"
        }
      ],
      "stateMutability": "view",
      "type": "function"
    },
    {
      "inputs": [
        {
          "internalType": "address",
          "name": "from",
          "type": "address"
        },
        {
          "internalType": "address",
          "name": "to",
          "type": "address"
        },
        {
          "internalType": "uint256",
          "name": "tokenId",
          "type": "uint256"
        }
      ],
      "name": "transferFrom",
      "outputs": [],
      "stateMutability": "nonpayable",
      "type": "function"
    }
  ],
  "bytecode": "0x608060405234801561001057600080fd5b506040518060400160405280600a81526020017f46756e426f6d624e4654000000000000000000000000000000000000000000008152506040518060400160405280600481526020017f424f4d4200000000000000000000000000000000000000000000000000000000815250816000908161008c9190610335565b50806001908161009c9190610335565b50505033600760006101000a81548173ffffffffffffffffffffffffffffffffffffffff021916908373ffffffffffffffffffffffffffffffffffffffff160217905550610407565b600081519050919050565b7f4e487b7100000000000000000000000000000000000000000000000000000000600052604160045260246000fd5b7f4e487b7100000000000000000000000000000000000000000000000000000000600052602260045260246000fd5b6000600282049050600182168061016657607f821691505b6020821081036101795761017861011f565b5b50919050565b60008190508160005260206000209050919050565b60006020601f8301049050919050565b600082821b905092915050565b6000600883026101e17fffffffffffffffffffffffffffffffffffffffffffffffffffffffffffffffff826101a4565b6101eb86836101a4565b95508019841693508086168417925050509392505050565b6000819050919050565b6000819050919050565b600061023261022d61022884610203565b61020d565b610203565b9050919050565b6000819050919050565b61024c83610217565b61026061025882610239565b8484546101b1565b825550505050565b600090565b610275610268565b610280818484610243565b505050565b5b818110156102a45761029960008261026d565b600181019050610286565b5050565b601f8211156102e9576102ba8161017f565b6102c384610194565b810160208510156102d2578190505b6102e66102de85610194565b830182610285565b50505b505050565b600082821c905092915050565b600061030c600019846008026102ee565b1980831691505092915050565b600061032583836102fb565b9150826002028217905092915050565b61033e826100e5565b67ffffffffffffffff811115610357576103566100f0565b5b610361825461014e565b61036c8282856102a8565b600060209050601f83116001811461039f576000841561038d578287015190505b6103978582610319565b8655506103ff565b601f1984166103ad8661017f565b60005b828110156103d5578489015182556001820191506020850194506020810190506103b0565b868310156103f257848901516103ee601f8916826102fb565b8355505b6001600288020188555050505b505050505050565b6126fe806104166000396000f3fe608060405234801561001057600080fd5b50600436106101165760003560e01c806370a08231116100a2578063a2309ff811610071578063a2309ff8146102df578063b88d4fde146102fd578063c87b56dd14610319578063e985e9c514610349578063eacabe141461037957610116565b806370a08231146102575780638da5cb5b1461028757806395d89b41146102a5578063a22cb465146102c357610116565b8063095ea7b3116100e9578063095ea7b3146101b55780630ab8afac146101d157806323b872dd146101ef57806342842e0e1461020b5780636352211e1461022757610116565b806301ffc9a71461011b578063023924c71461014b57806306fdde0314610167578063081812fc14610185575b600080fd5b61013560048036038101906101309190611a58565b610395565b6040516101429190611aa0565b60405180910390f35b61016560048036038101906101609190611b19565b6103f6565b005b61016f6104ca565b60405161017c9190611bd6565b60405180910390f35b61019f600480360381019061019a9190611c2e565b61055c565b6040516101ac9190611c6a565b60405180910390f35b6101cf60048036038101906101ca9190611c85565b610578565b005b6101d961058e565b6040516101e69190611c6a565b60405180910390f35b61020960048036038101906102049190611cc5565b6105b4565b005b61022560048036038101906102209190611cc5565b6106b6565b005b610241600480360381019061023c9190611c2e565b6106d6565b60405161024e9190611c6a565b60405180910390f35b610271600480360381019061026c9190611b19565b6106e8565b60405161027e9190611d27565b60405180910390f35b61028f6107a2565b60405161029c9190611c6a565b60405180910390f35b6102ad6107c8565b6040516102ba9190611bd6565b60405180910390f35b6102dd60048036038101906102d89190611d6e565b61085a565b005b6102e7610870565b6040516102f49190611d27565b60405180910390f35b61031760048036038101906103129190611ee3565b61087a565b005b610333600480360381019061032e9190611c2e565b61089f565b6040516103409190611bd6565b60405180910390f35b610363600480360381019061035e9190611f66565b6109b2565b6040516103709190611aa0565b60405180910390f35b610393600480360381019061038e9190612047565b610a46565b005b6000634906490660e01b7bffffffffffffffffffffffffffffffffffffffffffffffffffffffff1916827bffffffffffffffffffffffffffffffffffffffffffffffffffffffff191614806103ef57506103ee82610b0a565b5b9050919050565b600760009054906101000a900473ffffffffffffffffffffffffffffffffffffffff1673ffffffffffffffffffffffffffffffffffffffff163373ffffffffffffffffffffffffffffffffffffffff1614610486576040517f08c379a000000000000000000000000000000000000000000000000000000000815260040161047d90612115565b60405180910390fd5b80600860006101000a81548173ffffffffffffffffffffffffffffffffffffffff021916908373ffffffffffffffffffffffffffffffffffffffff16021790555050565b6060600080546104d990612164565b80601f016020809104026020016040519081016040528092919081815260200182805461050590612164565b80156105525780601f1061052757610100808354040283529160200191610552565b820191906000526020600020905b81548152906001019060200180831161053557829003601f168201915b5050505050905090565b600061056782610bec565b5061057182610c74565b9050919050565b61058a8282610585610cb1565b610cb9565b5050565b600860009054906101000a900473ffffffffffffffffffffffffffffffffffffffff1681565b600073ffffffffffffffffffffffffffffffffffffffff168273ffffffffffffffffffffffffffffffffffffffff16036106265760006040517f64a0ae9200000000000000000000000000000000000000000000000000000000815260040161061d9190611c6a565b60405180910390fd5b600061063a8383610635610cb1565b610ccb565b90508373ffffffffffffffffffffffffffffffffffffffff168173ffffffffffffffffffffffffffffffffffffffff16146106b0578382826040517f64283d7b0000000000000000000000000000000000000000000000000000000081526004016106a793929190612195565b60405180910390fd5b50505050565b6106d18383836040518060200160405280600081525061087a565b505050565b60006106e182610bec565b9050919050565b60008073ffffffffffffffffffffffffffffffffffffffff168273ffffffffffffffffffffffffffffffffffffffff160361075b5760006040517f89c62b640000000000000000000000000000000000000000000000000000000081526004016107529190611c6a565b60405180910390fd5b600360008373ffffffffffffffffffffffffffffffffffffffff1673ffffffffffffffffffffffffffffffffffffffff168152602001908152602001600020549050919050565b600760009054906101000a900473ffffffffffffffffffffffffffffffffffffffff1681565b6060600180546107d790612164565b80601f016020809104026020016040519081016040528092919081815260200182805461080390612164565b80156108505780601f1061082557610100808354040283529160200191610850565b820191906000526020600020905b81548152906001019060200180831161083357829003601f168201915b5050505050905090565b61086c610865610cb1565b8383610ee5565b5050565b6000600954905090565b6108858484846105b4565b610899610890610cb1565b85858585611054565b50505050565b60606108aa82610bec565b5060006006600084815260200190815260200160002080546108cb90612164565b80601f01602080910402602001604051908101604052809291908181526020018280546108f790612164565b80156109445780601f1061091957610100808354040283529160200191610944565b820191906000526020600020905b81548152906001019060200180831161092757829003601f168201915b505050505090506000610955611205565b9050600081510361096a5781925050506109ad565b60008251111561099f578082604051602001610987929190612208565b604051602081830303815290604052925050506109ad565b6109a88461121c565b925050505b919050565b6000600560008473ffffffffffffffffffffffffffffffffffffffff1673ffffffffffffffffffffffffffffffffffffffff16815260200190815260200160002060008373ffffffffffffffffffffffffffffffffffffffff1673ffffffffffffffffffffffffffffffffffffffff16815260200190815260200160002060009054906101000a900460ff16905092915050565b600860009054906101000a900473ffffffffffffffffffffffffffffffffffffffff1673ffffffffffffffffffffffffffffffffffffffff163373ffffffffffffffffffffffffffffffffffffffff1614610ad6576040517f08c379a0000000000000000000000000000000000000000000000000000000008152600401610acd90612278565b60405180910390fd5b60096000815480929190610ae9906122c7565b9190505550610afa82600954611285565b610b066009548261137e565b5050565b60007f80ac58cd000000000000000000000000000000000000000000000000000000007bffffffffffffffffffffffffffffffffffffffffffffffffffffffff1916827bffffffffffffffffffffffffffffffffffffffffffffffffffffffff19161480610bd557507f5b5e139f000000000000000000000000000000000000000000000000000000007bffffffffffffffffffffffffffffffffffffffffffffffffffffffff1916827bffffffffffffffffffffffffffffffffffffffffffffffffffffffff1916145b80610be55750610be4826113da565b5b9050919050565b600080610bf883611444565b9050600073ffffffffffffffffffffffffffffffffffffffff168173ffffffffffffffffffffffffffffffffffffffff1603610c6b57826040517f7e273289000000000000000000000000000000000000000000000000000000008152600401610c629190611d27565b60405180910390fd5b80915050919050565b60006004600083815260200190815260200160002060009054906101000a900473ffffffffffffffffffffffffffffffffffffffff169050919050565b600033905090565b610cc68383836001611481565b505050565b600080610cd784611444565b9050600073ffffffffffffffffffffffffffffffffffffffff168373ffffffffffffffffffffffffffffffffffffffff1614610d1957610d18818486611646565b5b600073ffffffffffffffffffffffffffffffffffffffff168173ffffffffffffffffffffffffffffffffffffffff1614610daa57610d5b600085600080611481565b6001600360008373ffffffffffffffffffffffffffffffffffffffff1673ffffffffffffffffffffffffffffffffffffffff168152602001908152602001600020600082825403925050819055505b600073ffffffffffffffffffffffffffffffffffffffff168573ffffffffffffffffffffffffffffffffffffffff1614610e2d576001600360008773ffffffffffffffffffffffffffffffffffffffff1673ffffffffffffffffffffffffffffffffffffffff168152602001908152602001600020600082825401925050819055505b846002600086815260200190815260200160002060006101000a81548173ffffffffffffffffffffffffffffffffffffffff021916908373ffffffffffffffffffffffffffffffffffffffff160217905550838573ffffffffffffffffffffffffffffffffffffffff168273ffffffffffffffffffffffffffffffffffffffff167fddf252ad1be2c89b69c2b068fc378daa952ba7f163c4a11628f55a4df523b3ef60405160405180910390a4809150509392505050565b600073ffffffffffffffffffffffffffffffffffffffff168273ffffffffffffffffffffffffffffffffffffffff1603610f5657816040517f5b08ba18000000000000000000000000000000000000000000000000000000008152600401610f4d9190611c6a565b60405180910390fd5b80600560008573ffffffffffffffffffffffffffffffffffffffff1673ffffffffffffffffffffffffffffffffffffffff16815260200190815260200160002060008473ffffffffffffffffffffffffffffffffffffffff1673ffffffffffffffffffffffffffffffffffffffff16815260200190815260200160002060006101000a81548160ff0219169083151502179055508173ffffffffffffffffffffffffffffffffffffffff168373ffffffffffffffffffffffffffffffffffffffff167f17307eab39ab6107e8899845ad3d59bd9653f200f220920489ca2b5937696c31836040516110479190611aa0565b60405180910390a3505050565b60008373ffffffffffffffffffffffffffffffffffffffff163b11156111fe578273ffffffffffffffffffffffffffffffffffffffff1663150b7a02868685856040518563ffffffff1660e01b81526004016110b39493929190612364565b6020604051808303816000875af19250505080156110ef57506040513d601f19601f820116820180604052508101906110ec91906123c5565b60015b611173573d806000811461111f576040519150601f19603f3d011682016040523d82523d6000602084013e611124565b606091505b50600081510361116b57836040517f64a0ae920000000000000000000000000000000000000000000000000000000081526004016111629190611c6a565b60405180910390fd5b805181602001fd5b63150b7a0260e01b7bffffffffffffffffffffffffffffffffffffffffffffffffffffffff1916817bffffffffffffffffffffffffffffffffffffffffffffffffffffffff1916146111fc57836040517f64a0ae920000000000000000000000000000000000000000000000000000000081526004016111f39190611c6a565b60405180910390fd5b505b5050505050565b606060405180602001604052806000815250905090565b606061122782610bec565b506000611232611205565b90506000815111611252576040518060200160405280600081525061127d565b8061125c8461170a565b60405160200161126d929190612208565b6040516020818303038152906040525b915050919050565b600073ffffffffffffffffffffffffffffffffffffffff168273ffffffffffffffffffffffffffffffffffffffff16036112f75760006040517f64a0ae920000000000000000000000000000000000000000000000000000000081526004016112ee9190611c6a565b60405180910390fd5b600061130583836000610ccb565b9050600073ffffffffffffffffffffffffffffffffffffffff168173ffffffffffffffffffffffffffffffffffffffff16146113795760006040517f73c6ac6e0000000000000000000000000000000000000000000000000000000081526004016113709190611c6a565b60405180910390fd5b505050565b8060066000848152602001908152602001600020908161139e919061259e565b507ff8e1a15aba9398e019f0b49df1a4fde98ee17ae345cb5f6b5e2c27f5033e8ce7826040516113ce9190611d27565b60405180910390a15050565b60007f01ffc9a7000000000000000000000000000000000000000000000000000000007bffffffffffffffffffffffffffffffffffffffffffffffffffffffff1916827bffffffffffffffffffffffffffffffffffffffffffffffffffffffff1916149050919050565b60006002600083815260200190815260200160002060009054906101000a900473ffffffffffffffffffffffffffffffffffffffff169050919050565b80806114ba5750600073ffffffffffffffffffffffffffffffffffffffff168273ffffffffffffffffffffffffffffffffffffffff1614155b156115ee5760006114ca84610bec565b9050600073ffffffffffffffffffffffffffffffffffffffff168373ffffffffffffffffffffffffffffffffffffffff161415801561153557508273ffffffffffffffffffffffffffffffffffffffff168173ffffffffffffffffffffffffffffffffffffffff1614155b8015611548575061154681846109b2565b155b1561158a57826040517fa9fbf51f0000000000000000000000000000000000000000000000000000000081526004016115819190611c6a565b60405180910390fd5b81156115ec57838573ffffffffffffffffffffffffffffffffffffffff168273ffffffffffffffffffffffffffffffffffffffff167f8c5be1e5ebec7d5bd14f71427d1e84f3dd0314c0f7b2291e5b200ac8c7c3b92560405160405180910390a45b505b836004600085815260200190815260200160002060006101000a81548173ffffffffffffffffffffffffffffffffffffffff021916908373ffffffffffffffffffffffffffffffffffffffff16021790555050505050565b6116518383836117d8565b61170557600073ffffffffffffffffffffffffffffffffffffffff168373ffffffffffffffffffffffffffffffffffffffff16036116c657806040517f7e2732890000000000000000000000000000000000000000000000000000000081526004016116bd9190611d27565b60405180910390fd5b81816040517f177e802f0000000000000000000000000000000000000000000000000000000081526004016116fc929190612670565b60405180910390fd5b505050565b60606000600161171984611899565b01905060008167ffffffffffffffff81111561173857611737611db8565b5b6040519080825280601f01601f19166020018201604052801561176a5781602001600182028036833780820191505090505b509050600082602001820190505b6001156117cd578080600190039150507f3031323334353637383961626364656600000000000000000000000000000000600a86061a8153600a85816117c1576117c0612699565b5b04945060008503611778575b819350505050919050565b60008073ffffffffffffffffffffffffffffffffffffffff168373ffffffffffffffffffffffffffffffffffffffff161415801561189057508273ffffffffffffffffffffffffffffffffffffffff168473ffffffffffffffffffffffffffffffffffffffff161480611851575061185084846109b2565b5b8061188f57508273ffffffffffffffffffffffffffffffffffffffff1661187783610c74565b73ffffffffffffffffffffffffffffffffffffffff16145b5b90509392505050565b600080600090507a184f03e93ff9f4daa797ed6e38ed64bf6a1f01000000000000000083106118f7577a184f03e93ff9f4daa797ed6e38ed64bf6a1f01000000000000000083816118ed576118ec612699565b5b0492506040810190505b6d04ee2d6d415b85acef81000000008310611934576d04ee2d6d415b85acef8100000000838161192a57611929612699565b5b0492506020810190505b662386f26fc10000831061196357662386f26fc10000838161195957611958612699565b5b0492506010810190505b6305f5e100831061198c576305f5e100838161198257611981612699565b5b0492506008810190505b61271083106119b15761271083816119a7576119a6612699565b5b0492506004810190505b606483106119d457606483816119ca576119c9612699565b5b0492506002810190505b600a83106119e3576001810190505b80915050919050565b6000604051905090565b600080fd5b600080fd5b60007fffffffff0000000000000000000000000000000000000000000000000000000082169050919050565b611a3581611a00565b8114611a4057600080fd5b50565b600081359050611a5281611a2c565b92915050565b600060208284031215611a6e57611a6d6119f6565b5b6000611a7c84828501611a43565b91505092915050565b60008115159050919050565b611a9a81611a85565b82525050565b6000602082019050611ab56000830184611a91565b92915050565b600073ffffffffffffffffffffffffffffffffffffffff82169050919050565b6000611ae682611abb565b9050919050565b611af681611adb565b8114611b0157600080fd5b50565b600081359050611b1381611aed565b92915050565b600060208284031215611b2f57611b2e6119f6565b5b6000611b3d84828501611b04565b91505092915050565b600081519050919050565b600082825260208201905092915050565b60005b83811015611b80578082015181840152602081019050611b65565b60008484015250505050565b6000601f19601f8301169050919050565b6000611ba882611b46565b611bb28185611b51565b9350611bc2818560208601611b62565b611bcb81611b8c565b840191505092915050565b60006020820190508181036000830152611bf08184611b9d565b905092915050565b6000819050919050565b611c0b81611bf8565b8114611c1657600080fd5b50565b600081359050611c2881611c02565b92915050565b600060208284031215611c4457611c436119f6565b5b6000611c5284828501611c19565b91505092915050565b611c6481611adb565b82525050565b6000602082019050611c7f6000830184611c5b565b92915050565b60008060408385031215611c9c57611c9b6119f6565b5b6000611caa85828601611b04565b9250506020611cbb85828601611c19565b9150509250929050565b600080600060608486031215611cde57611cdd6119f6565b5b6000611cec86828701611b04565b9350506020611cfd86828701611b04565b9250506040611d0e86828701611c19565b9150509250925092565b611d2181611bf8565b82525050565b6000602082019050611d3c6000830184611d18565b92915050565b611d4b81611a85565b8114611d5657600080fd5b50565b600081359050611d6881611d42565b92915050565b60008060408385031215611d8557611d846119f6565b5b6000611d9385828601611b04565b9250506020611da485828601611d59565b9150509250929050565b600080fd5b600080fd5b7f4e487b7100000000000000000000000000000000000000000000000000000000600052604160045260246000fd5b611df082611b8c565b810181811067ffffffffffffffff82111715611e0f57611e0e611db8565b5b80604052505050565b6000611e226119ec565b9050611e2e8282611de7565b919050565b600067ffffffffffffffff821115611e4e57611e4d611db8565b5b611e5782611b8c565b9050602081019050919050565b82818337600083830152505050565b6000611e86611e8184611e33565b611e18565b905082815260208101848484011115611ea257611ea1611db3565b5b611ead848285611e64565b509392505050565b600082601f830112611eca57611ec9611dae565b5b8135611eda848260208601611e73565b91505092915050565b60008060008060808587031215611efd57611efc6119f6565b5b6000611f0b87828801611b04565b9450506020611f1c87828801611b04565b9350506040611f2d87828801611c19565b925050606085013567ffffffffffffffff811115611f4e57611f4d6119fb565b5b611f5a87828801611eb5565b91505092959194509250565b60008060408385031215611f7d57611f7c6119f6565b5b6000611f8b85828601611b04565b9250506020611f9c85828601611b04565b9150509250929050565b600067ffffffffffffffff821115611fc157611fc0611db8565b5b611fca82611b8c565b9050602081019050919050565b6000611fea611fe584611fa6565b611e18565b90508281526020810184848401111561200657612005611db3565b5b612011848285611e64565b509392505050565b600082601f83011261202e5761202d611dae565b5b813561203e848260208601611fd7565b91505092915050565b6000806040838503121561205e5761205d6119f6565b5b600061206c85828601611b04565b925050602083013567ffffffffffffffff81111561208d5761208c6119fb565b5b61209985828601612019565b9150509250929050565b7f4f6e6c79206f776e65722063616e2063616c6c20746869732066756e6374696f60008201527f6e00000000000000000000000000000000000000000000000000000000000000602082015250565b60006120ff602183611b51565b915061210a826120a3565b604082019050919050565b6000602082019050818103600083015261212e816120f2565b9050919050565b7f4e487b7100000000000000000000000000000000000000000000000000000000600052602260045260246000fd5b6000600282049050600182168061217c57607f821691505b60208210810361218f5761218e612135565b5b50919050565b60006060820190506121aa6000830186611c5b565b6121b76020830185611d18565b6121c46040830184611c5b565b949350505050565b600081905092915050565b60006121e282611b46565b6121ec81856121cc565b93506121fc818560208601611b62565b80840191505092915050565b600061221482856121d7565b915061222082846121d7565b91508190509392505050565b7f4f6e6c792061756374696f6e20636f6e74726163742063616e206d696e740000600082015250565b6000612262601e83611b51565b915061226d8261222c565b602082019050919050565b6000602082019050818103600083015261229181612255565b9050919050565b7f4e487b7100000000000000000000000000000000000000000000000000000000600052601160045260246000fd5b60006122d282611bf8565b91507fffffffffffffffffffffffffffffffffffffffffffffffffffffffffffffffff820361230457612303612298565b5b600182019050919050565b600081519050919050565b600082825260208201905092915050565b60006123368261230f565b612340818561231a565b9350612350818560208601611b62565b61235981611b8c565b840191505092915050565b60006080820190506123796000830187611c5b565b6123866020830186611c5b565b6123936040830185611d18565b81810360608301526123a5818461232b565b905095945050505050565b6000815190506123bf81611a2c565b92915050565b6000602082840312156123db576123da6119f6565b5b60006123e9848285016123b0565b91505092915050565b60008190508160005260206000209050919050565b60006020601f8301049050919050565b600082821b905092915050565b6000600883026124547fffffffffffffffffffffffffffffffffffffffffffffffffffffffffffffffff82612417565b61245e8683612417565b95508019841693508086168417925050509392505050565b6000819050919050565b600061249b61249661249184611bf8565b612476565b611bf8565b9050919050565b6000819050919050565b6124b583612480565b6124c96124c1826124a2565b848454612424565b825550505050565b600090565b6124de6124d1565b6124e98184846124ac565b505050565b5b8181101561250d576125026000826124d6565b6001810190506124ef565b5050565b601f82111561255257612523816123f2565b61252c84612407565b8101602085101561253b578190505b61254f61254785612407565b8301826124ee565b50505b505050565b600082821c905092915050565b600061257560001984600802612557565b1980831691505092915050565b600061258e8383612564565b9150826002028217905092915050565b6125a782611b46565b67ffffffffffffffff8111156125c0576125bf611db8565b5b6125ca8254612164565b6125d5828285612511565b600060209050601f83116001811461260857600084156125f6578287015190505b6126008582612582565b865550612668565b601f198416612616866123f2565b60005b8281101561263e57848901518255600182019150602085019450602081019050612619565b8683101561265b5784890151612657601f891682612564565b8355505b6001600288020188555050505b505050505050565b60006040820190506126856000830185611c5b565b6126926020830184611d18565b9392505050565b7f4e487b7100000000000000000000000000000000000000000000000000000000600052601260045260246000fdfea2646970667358221220c482bc3adf2ca23d9dfc703025757c49e677a34ea79c8d3de52e4667e427537d64736f6c634300081c0033",
  "linkReferences": {},
  "deployedLinkReferences": {}
}